{
  "_format": "hh-sol-artifact-1",
  "contractName": "AuctionManager",
  "sourceName": "contracts/AuctionManager.sol",
  "abi": [
    {
      "anonymous": false,
      "inputs": [
        {
          "indexed": true,
          "internalType": "uint256",
          "name": "auctionId",
          "type": "uint256"
        },
        {
          "indexed": false,
          "internalType": "string",
          "name": "item",
          "type": "string"
        },
        {
          "indexed": false,
          "internalType": "uint256",
          "name": "endTime",
          "type": "uint256"
        }
      ],
      "name": "AuctionCreated",
      "type": "event"
    },
    {
      "anonymous": false,
      "inputs": [
        {
          "indexed": true,
          "internalType": "uint256",
          "name": "auctionId",
          "type": "uint256"
        },
        {
          "indexed": false,
          "internalType": "address",
          "name": "winner",
          "type": "address"
        },
        {
          "indexed": false,
          "internalType": "uint256",
          "name": "amount",
          "type": "uint256"
        }
      ],
      "name": "AuctionEnded",
      "type": "event"
    },
    {
      "anonymous": false,
      "inputs": [
        {
          "indexed": true,
          "internalType": "uint256",
          "name": "auctionId",
          "type": "uint256"
        },
        {
          "indexed": false,
          "internalType": "address",
          "name": "bidder",
          "type": "address"
        },
        {
          "indexed": false,
          "internalType": "uint256",
          "name": "amount",
          "type": "uint256"
        }
      ],
      "name": "HighestBidIncreased",
      "type": "event"
    },
    {
      "inputs": [
        {
          "internalType": "uint256",
          "name": "_auctionId",
          "type": "uint256"
        }
      ],
      "name": "bid",
      "outputs": [],
      "stateMutability": "payable",
      "type": "function"
    },
    {
      "inputs": [
        {
          "internalType": "string",
          "name": "_item",
          "type": "string"
        },
        {
          "internalType": "uint256",
          "name": "_duration",
          "type": "uint256"
        }
      ],
      "name": "createAuction",
      "outputs": [],
      "stateMutability": "nonpayable",
      "type": "function"
    },
    {
      "inputs": [
        {
          "internalType": "uint256",
          "name": "_auctionId",
          "type": "uint256"
        }
      ],
      "name": "endAuction",
      "outputs": [],
      "stateMutability": "nonpayable",
      "type": "function"
    },
    {
      "inputs": [
        {
          "internalType": "uint256",
          "name": "_auctionId",
          "type": "uint256"
        }
      ],
      "name": "getAuction",
      "outputs": [
        {
          "internalType": "address",
          "name": "seller",
          "type": "address"
        },
        {
          "internalType": "string",
          "name": "item",
          "type": "string"
        },
        {
          "internalType": "uint256",
          "name": "endTime",
          "type": "uint256"
        },
        {
          "internalType": "uint256",
          "name": "highestBid",
          "type": "uint256"
        },
        {
          "internalType": "address",
          "name": "highestBidder",
          "type": "address"
        },
        {
          "internalType": "bool",
          "name": "ended",
          "type": "bool"
        }
      ],
      "stateMutability": "view",
      "type": "function"
    },
    {
      "inputs": [],
      "name": "getAuctionsCount",
      "outputs": [
        {
          "internalType": "uint256",
          "name": "",
          "type": "uint256"
        }
      ],
      "stateMutability": "view",
      "type": "function"
    },
    {
      "inputs": [
        {
          "internalType": "uint256",
          "name": "_auctionId",
          "type": "uint256"
        },
        {
          "internalType": "address",
          "name": "_user",
          "type": "address"
        }
      ],
      "name": "getPendingReturn",
      "outputs": [
        {
          "internalType": "uint256",
          "name": "",
          "type": "uint256"
        }
      ],
      "stateMutability": "view",
      "type": "function"
    },
    {
      "inputs": [
        {
          "internalType": "uint256",
          "name": "_auctionId",
          "type": "uint256"
        }
      ],
      "name": "withdrawReturns",
      "outputs": [],
      "stateMutability": "nonpayable",
      "type": "function"
    }
  ],
  "bytecode": "0x608060405234801561001057600080fd5b50611935806100206000396000f3fe6080604052600436106100705760003560e01c8063b9a2de3a1161004e578063b9a2de3a146100fc578063d02ef6f914610125578063e45c187914610162578063ff8952391461018d57610070565b806320a8b9cd14610075578063454a2ab31461009e57806378bd7935146100ba575b600080fd5b34801561008157600080fd5b5061009c60048036038101906100979190610c5e565b6101b6565b005b6100b860048036038101906100b39190610c5e565b6103a4565b005b3480156100c657600080fd5b506100e160048036038101906100dc9190610c5e565b610645565b6040516100f396959493929190610d86565b60405180910390f35b34801561010857600080fd5b50610123600480360381019061011e9190610c5e565b6107c7565b005b34801561013157600080fd5b5061014c60048036038101906101479190610e1a565b610a32565b6040516101599190610e5a565b60405180910390f35b34801561016e57600080fd5b50610177610ae5565b6040516101849190610e5a565b60405180910390f35b34801561019957600080fd5b506101b460048036038101906101af9190610faa565b610af1565b005b60008054905081106101fd576040517f08c379a00000000000000000000000000000000000000000000000000000000081526004016101f490611052565b60405180910390fd5b600080828154811061021257610211611072565b5b9060005260206000209060070201905060008160050160003373ffffffffffffffffffffffffffffffffffffffff1673ffffffffffffffffffffffffffffffffffffffff168152602001908152602001600020549050600081116102ab576040517f08c379a00000000000000000000000000000000000000000000000000000000081526004016102a2906110ed565b60405180910390fd5b60008260050160003373ffffffffffffffffffffffffffffffffffffffff1673ffffffffffffffffffffffffffffffffffffffff1681526020019081526020016000208190555060003373ffffffffffffffffffffffffffffffffffffffff16826040516103189061113e565b60006040518083038185875af1925050503d8060008114610355576040519150601f19603f3d011682016040523d82523d6000602084013e61035a565b606091505b505090508061039e576040517f08c379a00000000000000000000000000000000000000000000000000000000081526004016103959061119f565b60405180910390fd5b50505050565b60008054905081106103eb576040517f08c379a00000000000000000000000000000000000000000000000000000000081526004016103e290611052565b60405180910390fd5b6000808281548110610400576103ff611072565b5b9060005260206000209060070201905080600201544210610456576040517f08c379a000000000000000000000000000000000000000000000000000000000815260040161044d9061120b565b60405180910390fd5b8060030154341161049c576040517f08c379a000000000000000000000000000000000000000000000000000000000815260040161049390611277565b60405180910390fd5b8060000160009054906101000a900473ffffffffffffffffffffffffffffffffffffffff1673ffffffffffffffffffffffffffffffffffffffff163373ffffffffffffffffffffffffffffffffffffffff160361052e576040517f08c379a0000000000000000000000000000000000000000000000000000000008152600401610525906112e3565b60405180910390fd5b60008160030154146105bb5780600301548160050160008360040160009054906101000a900473ffffffffffffffffffffffffffffffffffffffff1673ffffffffffffffffffffffffffffffffffffffff1673ffffffffffffffffffffffffffffffffffffffff16815260200190815260200160002060008282546105b39190611332565b925050819055505b338160040160006101000a81548173ffffffffffffffffffffffffffffffffffffffff021916908373ffffffffffffffffffffffffffffffffffffffff160217905550348160030181905550817fda0a18da71d8ebd145966339a728fc0d8ccc07c22870d561890d823c515dda6b3334604051610639929190611366565b60405180910390a25050565b600060606000806000806000805490508710610696576040517f08c379a000000000000000000000000000000000000000000000000000000000815260040161068d90611052565b60405180910390fd5b60008088815481106106ab576106aa611072565b5b906000526020600020906007020190508060000160009054906101000a900473ffffffffffffffffffffffffffffffffffffffff1681600101826002015483600301548460040160009054906101000a900473ffffffffffffffffffffffffffffffffffffffff168560060160009054906101000a900460ff16848054610731906113be565b80601f016020809104026020016040519081016040528092919081815260200182805461075d906113be565b80156107aa5780601f1061077f576101008083540402835291602001916107aa565b820191906000526020600020905b81548152906001019060200180831161078d57829003601f168201915b505050505094509650965096509650965096505091939550919395565b600080549050811061080e576040517f08c379a000000000000000000000000000000000000000000000000000000000815260040161080590611052565b60405180910390fd5b600080828154811061082357610822611072565b5b90600052602060002090600702019050806002015442101561087a576040517f08c379a00000000000000000000000000000000000000000000000000000000081526004016108719061143b565b60405180910390fd5b8060060160009054906101000a900460ff16156108cc576040517f08c379a00000000000000000000000000000000000000000000000000000000081526004016108c3906114a7565b60405180910390fd5b60018160060160006101000a81548160ff0219169083151502179055506000816003015411156109cc5760008160000160009054906101000a900473ffffffffffffffffffffffffffffffffffffffff1673ffffffffffffffffffffffffffffffffffffffff1682600301546040516109449061113e565b60006040518083038185875af1925050503d8060008114610981576040519150601f19603f3d011682016040523d82523d6000602084013e610986565b606091505b50509050806109ca576040517f08c379a00000000000000000000000000000000000000000000000000000000081526004016109c190611513565b60405180910390fd5b505b817fd2aa34a4fdbbc6dff6a3e56f46e0f3ae2a31d7785ff3487aa5c95c642acea5018260040160009054906101000a900473ffffffffffffffffffffffffffffffffffffffff168360030154604051610a26929190611592565b60405180910390a25050565b600080805490508310610a7a576040517f08c379a0000000000000000000000000000000000000000000000000000000008152600401610a7190611052565b60405180910390fd5b60008381548110610a8e57610a8d611072565b5b906000526020600020906007020160050160008373ffffffffffffffffffffffffffffffffffffffff1673ffffffffffffffffffffffffffffffffffffffff16815260200190815260200160002054905092915050565b60008080549050905090565b60008111610b34576040517f08c379a0000000000000000000000000000000000000000000000000000000008152600401610b2b90611607565b60405180910390fd5b6000806001816001815401808255809150500390600052602060002090600702019050338160000160006101000a81548173ffffffffffffffffffffffffffffffffffffffff021916908373ffffffffffffffffffffffffffffffffffffffff16021790555082816001019081610bab91906117c9565b508142610bb89190611332565b81600201819055506001600080549050610bd2919061189b565b7f71ec34891b539684f9d6a8e102eaab1a9aebc42e3c7a517ed2a3e911f2695044848360020154604051610c079291906118cf565b60405180910390a2505050565b6000604051905090565b600080fd5b600080fd5b6000819050919050565b610c3b81610c28565b8114610c4657600080fd5b50565b600081359050610c5881610c32565b92915050565b600060208284031215610c7457610c73610c1e565b5b6000610c8284828501610c49565b91505092915050565b600073ffffffffffffffffffffffffffffffffffffffff82169050919050565b6000610cb682610c8b565b9050919050565b610cc681610cab565b82525050565b600081519050919050565b600082825260208201905092915050565b60005b83811015610d06578082015181840152602081019050610ceb565b60008484015250505050565b6000601f19601f8301169050919050565b6000610d2e82610ccc565b610d388185610cd7565b9350610d48818560208601610ce8565b610d5181610d12565b840191505092915050565b610d6581610c28565b82525050565b60008115159050919050565b610d8081610d6b565b82525050565b600060c082019050610d9b6000830189610cbd565b8181036020830152610dad8188610d23565b9050610dbc6040830187610d5c565b610dc96060830186610d5c565b610dd66080830185610cbd565b610de360a0830184610d77565b979650505050505050565b610df781610cab565b8114610e0257600080fd5b50565b600081359050610e1481610dee565b92915050565b60008060408385031215610e3157610e30610c1e565b5b6000610e3f85828601610c49565b9250506020610e5085828601610e05565b9150509250929050565b6000602082019050610e6f6000830184610d5c565b92915050565b600080fd5b600080fd5b7f4e487b7100000000000000000000000000000000000000000000000000000000600052604160045260246000fd5b610eb782610d12565b810181811067ffffffffffffffff82111715610ed657610ed5610e7f565b5b80604052505050565b6000610ee9610c14565b9050610ef58282610eae565b919050565b600067ffffffffffffffff821115610f1557610f14610e7f565b5b610f1e82610d12565b9050602081019050919050565b82818337600083830152505050565b6000610f4d610f4884610efa565b610edf565b905082815260208101848484011115610f6957610f68610e7a565b5b610f74848285610f2b565b509392505050565b600082601f830112610f9157610f90610e75565b5b8135610fa1848260208601610f3a565b91505092915050565b60008060408385031215610fc157610fc0610c1e565b5b600083013567ffffffffffffffff811115610fdf57610fde610c23565b5b610feb85828601610f7c565b9250506020610ffc85828601610c49565b9150509250929050565b7f496e76616c69642061756374696f6e2049440000000000000000000000000000600082015250565b600061103c601283610cd7565b915061104782611006565b602082019050919050565b6000602082019050818103600083015261106b8161102f565b9050919050565b7f4e487b7100000000000000000000000000000000000000000000000000000000600052603260045260246000fd5b7f4e6f2072657475726e7300000000000000000000000000000000000000000000600082015250565b60006110d7600a83610cd7565b91506110e2826110a1565b602082019050919050565b60006020820190508181036000830152611106816110ca565b9050919050565b600081905092915050565b50565b600061112860008361110d565b915061113382611118565b600082019050919050565b60006111498261111b565b9150819050919050565b7f5769746864726177616c206661696c6564000000000000000000000000000000600082015250565b6000611189601183610cd7565b915061119482611153565b602082019050919050565b600060208201905081810360008301526111b88161117c565b9050919050565b7f41756374696f6e20656e64656400000000000000000000000000000000000000600082015250565b60006111f5600d83610cd7565b9150611200826111bf565b602082019050919050565b60006020820190508181036000830152611224816111e8565b9050919050565b7f42696420746f6f206c6f77000000000000000000000000000000000000000000600082015250565b6000611261600b83610cd7565b915061126c8261122b565b602082019050919050565b6000602082019050818103600083015261129081611254565b9050919050565b7f53656c6c65722063616e6e6f7420626964000000000000000000000000000000600082015250565b60006112cd601183610cd7565b91506112d882611297565b602082019050919050565b600060208201905081810360008301526112fc816112c0565b9050919050565b7f4e487b7100000000000000000000000000000000000000000000000000000000600052601160045260246000fd5b600061133d82610c28565b915061134883610c28565b92508282019050808211156113605761135f611303565b5b92915050565b600060408201905061137b6000830185610cbd565b6113886020830184610d5c565b9392505050565b7f4e487b7100000000000000000000000000000000000000000000000000000000600052602260045260246000fd5b600060028204905060018216806113d657607f821691505b6020821081036113e9576113e861138f565b5b50919050565b7f41756374696f6e206e6f7420656e646564207965740000000000000000000000600082015250565b6000611425601583610cd7565b9150611430826113ef565b602082019050919050565b6000602082019050818103600083015261145481611418565b9050919050565b7f41756374696f6e20616c726561647920656e6465640000000000000000000000600082015250565b6000611491601583610cd7565b915061149c8261145b565b602082019050919050565b600060208201905081810360008301526114c081611484565b9050919050565b7f5472616e7366657220746f2073656c6c6572206661696c656400000000000000600082015250565b60006114fd601983610cd7565b9150611508826114c7565b602082019050919050565b6000602082019050818103600083015261152c816114f0565b9050919050565b6000819050919050565b600061155861155361154e84610c8b565b611533565b610c8b565b9050919050565b600061156a8261153d565b9050919050565b600061157c8261155f565b9050919050565b61158c81611571565b82525050565b60006040820190506115a76000830185611583565b6115b46020830184610d5c565b9392505050565b7f4475726174696f6e206d757374206265203e2030000000000000000000000000600082015250565b60006115f1601483610cd7565b91506115fc826115bb565b602082019050919050565b60006020820190508181036000830152611620816115e4565b9050919050565b60008190508160005260206000209050919050565b60006020601f8301049050919050565b600082821b905092915050565b6000600883026116897fffffffffffffffffffffffffffffffffffffffffffffffffffffffffffffffff8261164c565b611693868361164c565b95508019841693508086168417925050509392505050565b60006116c66116c16116bc84610c28565b611533565b610c28565b9050919050565b6000819050919050565b6116e0836116ab565b6116f46116ec826116cd565b848454611659565b825550505050565b600090565b6117096116fc565b6117148184846116d7565b505050565b5b818110156117385761172d600082611701565b60018101905061171a565b5050565b601f82111561177d5761174e81611627565b6117578461163c565b81016020851015611766578190505b61177a6117728561163c565b830182611719565b50505b505050565b600082821c905092915050565b60006117a060001984600802611782565b1980831691505092915050565b60006117b9838361178f565b9150826002028217905092915050565b6117d282610ccc565b67ffffffffffffffff8111156117eb576117ea610e7f565b5b6117f582546113be565b61180082828561173c565b600060209050601f8311600181146118335760008415611821578287015190505b61182b85826117ad565b865550611893565b601f19841661184186611627565b60005b8281101561186957848901518255600182019150602085019450602081019050611844565b868310156118865784890151611882601f89168261178f565b8355505b6001600288020188555050505b505050505050565b60006118a682610c28565b91506118b183610c28565b92508282039050818111156118c9576118c8611303565b5b92915050565b600060408201905081810360008301526118e98185610d23565b90506118f86020830184610d5c565b939250505056fea264697066735822122036a3270f888870a1d3a7c496dc6db361a6c202db210853f33cbbaffaad34c9b264736f6c63430008130033",
  "linkReferences": {},
  "deployedLinkReferences": {}
}